{
  "_format": "hh-sol-artifact-1",
  "contractName": "BookRecord",
  "sourceName": "contracts/BookRecord.sol",
  "abi": [
    {
      "anonymous": false,
      "inputs": [
        {
          "indexed": false,
          "internalType": "address",
          "name": "reader",
          "type": "address"
        },
        {
          "indexed": false,
          "internalType": "uint256",
          "name": "id",
          "type": "uint256"
        }
      ],
      "name": "AddBook",
      "type": "event"
    },
    {
      "anonymous": false,
      "inputs": [
        {
          "indexed": false,
          "internalType": "uint256",
          "name": "bookId",
          "type": "uint256"
        },
        {
          "indexed": false,
          "internalType": "bool",
          "name": "completed",
          "type": "bool"
        }
      ],
      "name": "SetCompleted",
      "type": "event"
    },
    {
      "inputs": [
        {
          "internalType": "string",
          "name": "title",
          "type": "string"
        },
        {
          "internalType": "uint256",
          "name": "year",
          "type": "uint256"
        },
        {
          "internalType": "string",
          "name": "author",
          "type": "string"
        },
        {
          "internalType": "bool",
          "name": "completed",
          "type": "bool"
        }
      ],
      "name": "addBook",
      "outputs": [],
      "stateMutability": "nonpayable",
      "type": "function"
    },
    {
      "inputs": [],
      "name": "getCompletedBooks",
      "outputs": [
        {
          "components": [
            {
              "internalType": "uint256",
              "name": "id",
              "type": "uint256"
            },
            {
              "internalType": "string",
              "name": "title",
              "type": "string"
            },
            {
              "internalType": "uint256",
              "name": "year",
              "type": "uint256"
            },
            {
              "internalType": "string",
              "name": "author",
              "type": "string"
            },
            {
              "internalType": "bool",
              "name": "completed",
              "type": "bool"
            }
          ],
          "internalType": "struct BookRecord.Book[]",
          "name": "",
          "type": "tuple[]"
        }
      ],
      "stateMutability": "view",
      "type": "function"
    },
    {
      "inputs": [],
      "name": "getUncompletedBooks",
      "outputs": [
        {
          "components": [
            {
              "internalType": "uint256",
              "name": "id",
              "type": "uint256"
            },
            {
              "internalType": "string",
              "name": "title",
              "type": "string"
            },
            {
              "internalType": "uint256",
              "name": "year",
              "type": "uint256"
            },
            {
              "internalType": "string",
              "name": "author",
              "type": "string"
            },
            {
              "internalType": "bool",
              "name": "completed",
              "type": "bool"
            }
          ],
          "internalType": "struct BookRecord.Book[]",
          "name": "",
          "type": "tuple[]"
        }
      ],
      "stateMutability": "view",
      "type": "function"
    },
    {
      "inputs": [
        {
          "internalType": "uint256",
          "name": "bookId",
          "type": "uint256"
        },
        {
          "internalType": "bool",
          "name": "completed",
          "type": "bool"
        }
      ],
      "name": "setCompleted",
      "outputs": [],
      "stateMutability": "nonpayable",
      "type": "function"
    }
  ],
  "bytecode": "0x608060405234801561001057600080fd5b50611337806100206000396000f3fe608060405234801561001057600080fd5b506004361061004c5760003560e01c8063036e4ccd146100515780635cb9f4a41461006f578063f2395d051461008b578063fb144612146100a9575b600080fd5b6100596100c5565b6040516100669190610c2a565b60405180910390f35b61008960048036038101906100849190610cb8565b610112565b005b610093610298565b6040516100a09190610c2a565b60405180910390f35b6100c360048036038101906100be9190610e2d565b6102e5565b005b60606100db670bd2d7566cc3ed6d60c01b6104d6565b6100ef67571a688157fdd06660c01b6104d6565b610103672bd8e5ad2ec228dd60c01b6104d6565b61010d60006104d9565b905090565b6101266707b96a66eaddc55e60c01b6104d6565b61013a6711f5c920bcdaccf960c01b6104d6565b61014e676ed4d840403aff5e60c01b6104d6565b3373ffffffffffffffffffffffffffffffffffffffff166001600084815260200190815260200160002060009054906101000a900473ffffffffffffffffffffffffffffffffffffffff1673ffffffffffffffffffffffffffffffffffffffff160361021e576101c86711cafc40bec775b760c01b6104d6565b6101dc6794cf53b1f1ce97b660c01b6104d6565b80600083815481106101f1576101f0610ecc565b5b906000526020600020906005020160040160006101000a81548160ff021916908315150217905550610233565b61023267925fcf72dd92653760c01b6104d6565b5b6102476703a451fed212309060c01b6104d6565b61025b6715fe25ca92da0bea60c01b6104d6565b7f82582a9036d363ac1c8f8afb35967821789bd99a24e5f545c34bd7db7ae3f937828260405161028c929190610f19565b60405180910390a15050565b60606102ae67afb4be4cd8d568ba60c01b6104d6565b6102c267996c7102a08cc0b660c01b6104d6565b6102d6674060c53b937f243960c01b6104d6565b6102e060016104d9565b905090565b6102f967691d52762eceb96d60c01b6104d6565b61030d67f47c82049f278c1f60c01b6104d6565b61032167f50c06d46613def760c01b6104d6565b60008080549050905061033e67e831757264c27c9a60c01b6104d6565b610352676eeeb88d4a14534260c01b6104d6565b60006040518060a0016040528083815260200187815260200186815260200185815260200184151581525090806001815401808255809150506001900390600052602060002090600502016000909190919091506000820151816000015560208201518160010190816103c5919061114e565b506040820151816002015560608201518160030190816103e5919061114e565b5060808201518160040160006101000a81548160ff021916908315150217905550505061041c67a3711c0fe4f9513160c01b6104d6565b336001600083815260200190815260200160002060006101000a81548173ffffffffffffffffffffffffffffffffffffffff021916908373ffffffffffffffffffffffffffffffffffffffff160217905550610482671a61d092de30e36c60c01b6104d6565b61049667b50f6e154c659ce360c01b6104d6565b7f10545577c692a22f651e69221c47ad4418e40434b36f4e2411bc54007aa8cbb933826040516104c7929190611261565b60405180910390a15050505050565b50565b60606104ef6722cc52a5b4a984a560c01b6104d6565b61050367275b14bc3451168060c01b6104d6565b610517672df4fe096d962bfa60c01b6104d6565b6000808054905067ffffffffffffffff81111561053757610536610d02565b5b60405190808252806020026020018201604052801561057057816020015b61055d6109f6565b8152602001906001900390816105555790505b50905061058767f3c30c1c9d5c7d8260c01b6104d6565b61059b67c8dfff3ac859226760c01b6104d6565b60006105b16760a646d7418bac3360c01b6104d6565b6105c567959ab1f5a2b8af0660c01b6104d6565b60005b6000805490508110156108b4576105e9677ca51174c4cd8be760c01b6104d6565b6105fd674e288deacc62bf3960c01b6104d6565b3373ffffffffffffffffffffffffffffffffffffffff166001600083815260200190815260200160002060009054906101000a900473ffffffffffffffffffffffffffffffffffffffff1673ffffffffffffffffffffffffffffffffffffffff161480156106a057508415156000828154811061067d5761067c610ecc565b5b906000526020600020906005020160040160009054906101000a900460ff161515145b15610892576106b967c52b346c1a876f6a60c01b6104d6565b6106cd6742da75cc73418dd860c01b6104d6565b600081815481106106e1576106e0610ecc565b5b90600052602060002090600502016040518060a00160405290816000820154815260200160018201805461071490610f71565b80601f016020809104026020016040519081016040528092919081815260200182805461074090610f71565b801561078d5780601f106107625761010080835404028352916020019161078d565b820191906000526020600020905b81548152906001019060200180831161077057829003601f168201915b50505050508152602001600282015481526020016003820180546107b090610f71565b80601f01602080910402602001604051908101604052809291908181526020018280546107dc90610f71565b80156108295780601f106107fe57610100808354040283529160200191610829565b820191906000526020600020905b81548152906001019060200180831161080c57829003601f168201915b505050505081526020016004820160009054906101000a900460ff1615151515815250508383815181106108605761085f610ecc565b5b602002602001018190525061087f67f7279737bc81a67160c01b6104d6565b818061088a906112b9565b9250506108a7565b6108a667e1a0ee405e73ebb460c01b6104d6565b5b80806001019150506105c8565b506108c967c1590472ccc8aa7960c01b6104d6565b6108dd67f8dadb187a669b9b60c01b6104d6565b60008167ffffffffffffffff8111156108f9576108f8610d02565b5b60405190808252806020026020018201604052801561093257816020015b61091f6109f6565b8152602001906001900390816109175790505b50905061094967151a4dd5c3b94e8260c01b6104d6565b61095d67b9cf29cbcc7d38f560c01b6104d6565b60005b828110156109c25761097c67c9125d603be8553c60c01b6104d6565b83818151811061098f5761098e610ecc565b5b60200260200101518282815181106109aa576109a9610ecc565b5b60200260200101819052508080600101915050610960565b506109d76722639a1e77a5b63460c01b6104d6565b6109eb673a2da49c176ae1ac60c01b6104d6565b809350505050919050565b6040518060a00160405280600081526020016060815260200160008152602001606081526020016000151581525090565b600081519050919050565b600082825260208201905092915050565b6000819050602082019050919050565b6000819050919050565b610a6681610a53565b82525050565b600081519050919050565b600082825260208201905092915050565b60005b83811015610aa6578082015181840152602081019050610a8b565b60008484015250505050565b6000601f19601f8301169050919050565b6000610ace82610a6c565b610ad88185610a77565b9350610ae8818560208601610a88565b610af181610ab2565b840191505092915050565b60008115159050919050565b610b1181610afc565b82525050565b600060a083016000830151610b2f6000860182610a5d565b5060208301518482036020860152610b478282610ac3565b9150506040830151610b5c6040860182610a5d565b5060608301518482036060860152610b748282610ac3565b9150506080830151610b896080860182610b08565b508091505092915050565b6000610ba08383610b17565b905092915050565b6000602082019050919050565b6000610bc082610a27565b610bca8185610a32565b935083602082028501610bdc85610a43565b8060005b85811015610c185784840389528151610bf98582610b94565b9450610c0483610ba8565b925060208a01995050600181019050610be0565b50829750879550505050505092915050565b60006020820190508181036000830152610c448184610bb5565b905092915050565b6000604051905090565b600080fd5b600080fd5b610c6981610a53565b8114610c7457600080fd5b50565b600081359050610c8681610c60565b92915050565b610c9581610afc565b8114610ca057600080fd5b50565b600081359050610cb281610c8c565b92915050565b60008060408385031215610ccf57610cce610c56565b5b6000610cdd85828601610c77565b9250506020610cee85828601610ca3565b9150509250929050565b600080fd5b600080fd5b7f4e487b7100000000000000000000000000000000000000000000000000000000600052604160045260246000fd5b610d3a82610ab2565b810181811067ffffffffffffffff82111715610d5957610d58610d02565b5b80604052505050565b6000610d6c610c4c565b9050610d788282610d31565b919050565b600067ffffffffffffffff821115610d9857610d97610d02565b5b610da182610ab2565b9050602081019050919050565b82818337600083830152505050565b6000610dd0610dcb84610d7d565b610d62565b905082815260208101848484011115610dec57610deb610cfd565b5b610df7848285610dae565b509392505050565b600082601f830112610e1457610e13610cf8565b5b8135610e24848260208601610dbd565b91505092915050565b60008060008060808587031215610e4757610e46610c56565b5b600085013567ffffffffffffffff811115610e6557610e64610c5b565b5b610e7187828801610dff565b9450506020610e8287828801610c77565b935050604085013567ffffffffffffffff811115610ea357610ea2610c5b565b5b610eaf87828801610dff565b9250506060610ec087828801610ca3565b91505092959194509250565b7f4e487b7100000000000000000000000000000000000000000000000000000000600052603260045260246000fd5b610f0481610a53565b82525050565b610f1381610afc565b82525050565b6000604082019050610f2e6000830185610efb565b610f3b6020830184610f0a565b9392505050565b7f4e487b7100000000000000000000000000000000000000000000000000000000600052602260045260246000fd5b60006002820490506001821680610f8957607f821691505b602082108103610f9c57610f9b610f42565b5b50919050565b60008190508160005260206000209050919050565b60006020601f8301049050919050565b600082821b905092915050565b6000600883026110047fffffffffffffffffffffffffffffffffffffffffffffffffffffffffffffffff82610fc7565b61100e8683610fc7565b95508019841693508086168417925050509392505050565b6000819050919050565b600061104b61104661104184610a53565b611026565b610a53565b9050919050565b6000819050919050565b61106583611030565b61107961107182611052565b848454610fd4565b825550505050565b600090565b61108e611081565b61109981848461105c565b505050565b5b818110156110bd576110b2600082611086565b60018101905061109f565b5050565b601f821115611102576110d381610fa2565b6110dc84610fb7565b810160208510156110eb578190505b6110ff6110f785610fb7565b83018261109e565b50505b505050565b600082821c905092915050565b600061112560001984600802611107565b1980831691505092915050565b600061113e8383611114565b9150826002028217905092915050565b61115782610a6c565b67ffffffffffffffff8111156111705761116f610d02565b5b61117a8254610f71565b6111858282856110c1565b600060209050601f8311600181146111b857600084156111a6578287015190505b6111b08582611132565b865550611218565b601f1984166111c686610fa2565b60005b828110156111ee578489015182556001820191506020850194506020810190506111c9565b8683101561120b5784890151611207601f891682611114565b8355505b6001600288020188555050505b505050505050565b600073ffffffffffffffffffffffffffffffffffffffff82169050919050565b600061124b82611220565b9050919050565b61125b81611240565b82525050565b60006040820190506112766000830185611252565b6112836020830184610efb565b9392505050565b7f4e487b7100000000000000000000000000000000000000000000000000000000600052601160045260246000fd5b60006112c482610a53565b91507fffffffffffffffffffffffffffffffffffffffffffffffffffffffffffffffff82036112f6576112f561128a565b5b60018201905091905056fea264697066735822122078dbbb64d390a5e3869d943d91079a79f8026bd974ea64391411a971cee8543864736f6c63430008180033",
  "linkReferences": {},
  "deployedLinkReferences": {}
}