{"contracts/BookRecord.sol":{"BookRecord":{"abi":[{"anonymous":false,"inputs":[{"indexed":false,"internalType":"address","name":"reader","type":"address"},{"indexed":false,"internalType":"uint256","name":"id","type":"uint256"}],"name":"AddBook","type":"event"},{"anonymous":false,"inputs":[{"indexed":false,"internalType":"uint256","name":"bookId","type":"uint256"},{"indexed":false,"internalType":"bool","name":"completed","type":"bool"}],"name":"SetCompleted","type":"event"},{"inputs":[{"internalType":"string","name":"title","type":"string"},{"internalType":"uint256","name":"year","type":"uint256"},{"internalType":"string","name":"author","type":"string"},{"internalType":"bool","name":"completed","type":"bool"}],"name":"addBook","outputs":[],"stateMutability":"nonpayable","type":"function"},{"inputs":[],"name":"getCompletedBooks","outputs":[{"components":[{"internalType":"uint256","name":"id","type":"uint256"},{"internalType":"string","name":"title","type":"string"},{"internalType":"uint256","name":"year","type":"uint256"},{"internalType":"string","name":"author","type":"string"},{"internalType":"bool","name":"completed","type":"bool"}],"internalType":"struct BookRecord.Book[]","name":"","type":"tuple[]"}],"stateMutability":"view","type":"function"},{"inputs":[],"name":"getUncompletedBooks","outputs":[{"components":[{"internalType":"uint256","name":"id","type":"uint256"},{"internalType":"string","name":"title","type":"string"},{"internalType":"uint256","name":"year","type":"uint256"},{"internalType":"string","name":"author","type":"string"},{"internalType":"bool","name":"completed","type":"bool"}],"internalType":"struct BookRecord.Book[]","name":"","type":"tuple[]"}],"stateMutability":"view","type":"function"},{"inputs":[{"internalType":"uint256","name":"bookId","type":"uint256"},{"internalType":"bool","name":"completed","type":"bool"}],"name":"setCompleted","outputs":[],"stateMutability":"nonpayable","type":"function"}],"devdoc":{"kind":"dev","methods":{},"version":1},"evm":{"bytecode":{"linkReferences":{},"object":"608060405234801561001057600080fd5b50611337806100206000396000f3fe608060405234801561001057600080fd5b506004361061004c5760003560e01c8063036e4ccd146100515780635cb9f4a41461006f578063f2395d051461008b578063fb144612146100a9575b600080fd5b6100596100c5565b6040516100669190610c2a565b60405180910390f35b61008960048036038101906100849190610cb8565b610112565b005b610093610298565b6040516100a09190610c2a565b60405180910390f35b6100c360048036038101906100be9190610e2d565b6102e5565b005b60606100db670bd2d7566cc3ed6d60c01b6104d6565b6100ef67571a688157fdd06660c01b6104d6565b610103672bd8e5ad2ec228dd60c01b6104d6565b61010d60006104d9565b905090565b6101266707b96a66eaddc55e60c01b6104d6565b61013a6711f5c920bcdaccf960c01b6104d6565b61014e676ed4d840403aff5e60c01b6104d6565b3373ffffffffffffffffffffffffffffffffffffffff166001600084815260200190815260200160002060009054906101000a900473ffffffffffffffffffffffffffffffffffffffff1673ffffffffffffffffffffffffffffffffffffffff160361021e576101c86711cafc40bec775b760c01b6104d6565b6101dc6794cf53b1f1ce97b660c01b6104d6565b80600083815481106101f1576101f0610ecc565b5b906000526020600020906005020160040160006101000a81548160ff021916908315150217905550610233565b61023267925fcf72dd92653760c01b6104d6565b5b6102476703a451fed212309060c01b6104d6565b61025b6715fe25ca92da0bea60c01b6104d6565b7f82582a9036d363ac1c8f8afb35967821789bd99a24e5f545c34bd7db7ae3f937828260405161028c929190610f19565b60405180910390a15050565b60606102ae67afb4be4cd8d568ba60c01b6104d6565b6102c267996c7102a08cc0b660c01b6104d6565b6102d6674060c53b937f243960c01b6104d6565b6102e060016104d9565b905090565b6102f967691d52762eceb96d60c01b6104d6565b61030d67f47c82049f278c1f60c01b6104d6565b61032167f50c06d46613def760c01b6104d6565b60008080549050905061033e67e831757264c27c9a60c01b6104d6565b610352676eeeb88d4a14534260c01b6104d6565b60006040518060a0016040528083815260200187815260200186815260200185815260200184151581525090806001815401808255809150506001900390600052602060002090600502016000909190919091506000820151816000015560208201518160010190816103c5919061114e565b506040820151816002015560608201518160030190816103e5919061114e565b5060808201518160040160006101000a81548160ff021916908315150217905550505061041c67a3711c0fe4f9513160c01b6104d6565b336001600083815260200190815260200160002060006101000a81548173ffffffffffffffffffffffffffffffffffffffff021916908373ffffffffffffffffffffffffffffffffffffffff160217905550610482671a61d092de30e36c60c01b6104d6565b61049667b50f6e154c659ce360c01b6104d6565b7f10545577c692a22f651e69221c47ad4418e40434b36f4e2411bc54007aa8cbb933826040516104c7929190611261565b60405180910390a15050505050565b50565b60606104ef6722cc52a5b4a984a560c01b6104d6565b61050367275b14bc3451168060c01b6104d6565b610517672df4fe096d962bfa60c01b6104d6565b6000808054905067ffffffffffffffff81111561053757610536610d02565b5b60405190808252806020026020018201604052801561057057816020015b61055d6109f6565b8152602001906001900390816105555790505b50905061058767f3c30c1c9d5c7d8260c01b6104d6565b61059b67c8dfff3ac859226760c01b6104d6565b60006105b16760a646d7418bac3360c01b6104d6565b6105c567959ab1f5a2b8af0660c01b6104d6565b60005b6000805490508110156108b4576105e9677ca51174c4cd8be760c01b6104d6565b6105fd674e288deacc62bf3960c01b6104d6565b3373ffffffffffffffffffffffffffffffffffffffff166001600083815260200190815260200160002060009054906101000a900473ffffffffffffffffffffffffffffffffffffffff1673ffffffffffffffffffffffffffffffffffffffff161480156106a057508415156000828154811061067d5761067c610ecc565b5b906000526020600020906005020160040160009054906101000a900460ff161515145b15610892576106b967c52b346c1a876f6a60c01b6104d6565b6106cd6742da75cc73418dd860c01b6104d6565b600081815481106106e1576106e0610ecc565b5b90600052602060002090600502016040518060a00160405290816000820154815260200160018201805461071490610f71565b80601f016020809104026020016040519081016040528092919081815260200182805461074090610f71565b801561078d5780601f106107625761010080835404028352916020019161078d565b820191906000526020600020905b81548152906001019060200180831161077057829003601f168201915b50505050508152602001600282015481526020016003820180546107b090610f71565b80601f01602080910402602001604051908101604052809291908181526020018280546107dc90610f71565b80156108295780601f106107fe57610100808354040283529160200191610829565b820191906000526020600020905b81548152906001019060200180831161080c57829003601f168201915b505050505081526020016004820160009054906101000a900460ff1615151515815250508383815181106108605761085f610ecc565b5b602002602001018190525061087f67f7279737bc81a67160c01b6104d6565b818061088a906112b9565b9250506108a7565b6108a667e1a0ee405e73ebb460c01b6104d6565b5b80806001019150506105c8565b506108c967c1590472ccc8aa7960c01b6104d6565b6108dd67f8dadb187a669b9b60c01b6104d6565b60008167ffffffffffffffff8111156108f9576108f8610d02565b5b60405190808252806020026020018201604052801561093257816020015b61091f6109f6565b8152602001906001900390816109175790505b50905061094967151a4dd5c3b94e8260c01b6104d6565b61095d67b9cf29cbcc7d38f560c01b6104d6565b60005b828110156109c25761097c67c9125d603be8553c60c01b6104d6565b83818151811061098f5761098e610ecc565b5b60200260200101518282815181106109aa576109a9610ecc565b5b60200260200101819052508080600101915050610960565b506109d76722639a1e77a5b63460c01b6104d6565b6109eb673a2da49c176ae1ac60c01b6104d6565b809350505050919050565b6040518060a00160405280600081526020016060815260200160008152602001606081526020016000151581525090565b600081519050919050565b600082825260208201905092915050565b6000819050602082019050919050565b6000819050919050565b610a6681610a53565b82525050565b600081519050919050565b600082825260208201905092915050565b60005b83811015610aa6578082015181840152602081019050610a8b565b60008484015250505050565b6000601f19601f8301169050919050565b6000610ace82610a6c565b610ad88185610a77565b9350610ae8818560208601610a88565b610af181610ab2565b840191505092915050565b60008115159050919050565b610b1181610afc565b82525050565b600060a083016000830151610b2f6000860182610a5d565b5060208301518482036020860152610b478282610ac3565b9150506040830151610b5c6040860182610a5d565b5060608301518482036060860152610b748282610ac3565b9150506080830151610b896080860182610b08565b508091505092915050565b6000610ba08383610b17565b905092915050565b6000602082019050919050565b6000610bc082610a27565b610bca8185610a32565b935083602082028501610bdc85610a43565b8060005b85811015610c185784840389528151610bf98582610b94565b9450610c0483610ba8565b925060208a01995050600181019050610be0565b50829750879550505050505092915050565b60006020820190508181036000830152610c448184610bb5565b905092915050565b6000604051905090565b600080fd5b600080fd5b610c6981610a53565b8114610c7457600080fd5b50565b600081359050610c8681610c60565b92915050565b610c9581610afc565b8114610ca057600080fd5b50565b600081359050610cb281610c8c565b92915050565b60008060408385031215610ccf57610cce610c56565b5b6000610cdd85828601610c77565b9250506020610cee85828601610ca3565b9150509250929050565b600080fd5b600080fd5b7f4e487b7100000000000000000000000000000000000000000000000000000000600052604160045260246000fd5b610d3a82610ab2565b810181811067ffffffffffffffff82111715610d5957610d58610d02565b5b80604052505050565b6000610d6c610c4c565b9050610d788282610d31565b919050565b600067ffffffffffffffff821115610d9857610d97610d02565b5b610da182610ab2565b9050602081019050919050565b82818337600083830152505050565b6000610dd0610dcb84610d7d565b610d62565b905082815260208101848484011115610dec57610deb610cfd565b5b610df7848285610dae565b509392505050565b600082601f830112610e1457610e13610cf8565b5b8135610e24848260208601610dbd565b91505092915050565b60008060008060808587031215610e4757610e46610c56565b5b600085013567ffffffffffffffff811115610e6557610e64610c5b565b5b610e7187828801610dff565b9450506020610e8287828801610c77565b935050604085013567ffffffffffffffff811115610ea357610ea2610c5b565b5b610eaf87828801610dff565b9250506060610ec087828801610ca3565b91505092959194509250565b7f4e487b7100000000000000000000000000000000000000000000000000000000600052603260045260246000fd5b610f0481610a53565b82525050565b610f1381610afc565b82525050565b6000604082019050610f2e6000830185610efb565b610f3b6020830184610f0a565b9392505050565b7f4e487b7100000000000000000000000000000000000000000000000000000000600052602260045260246000fd5b60006002820490506001821680610f8957607f821691505b602082108103610f9c57610f9b610f42565b5b50919050565b60008190508160005260206000209050919050565b60006020601f8301049050919050565b600082821b905092915050565b6000600883026110047fffffffffffffffffffffffffffffffffffffffffffffffffffffffffffffffff82610fc7565b61100e8683610fc7565b95508019841693508086168417925050509392505050565b6000819050919050565b600061104b61104661104184610a53565b611026565b610a53565b9050919050565b6000819050919050565b61106583611030565b61107961107182611052565b848454610fd4565b825550505050565b600090565b61108e611081565b61109981848461105c565b505050565b5b818110156110bd576110b2600082611086565b60018101905061109f565b5050565b601f821115611102576110d381610fa2565b6110dc84610fb7565b810160208510156110eb578190505b6110ff6110f785610fb7565b83018261109e565b50505b505050565b600082821c905092915050565b600061112560001984600802611107565b1980831691505092915050565b600061113e8383611114565b9150826002028217905092915050565b61115782610a6c565b67ffffffffffffffff8111156111705761116f610d02565b5b61117a8254610f71565b6111858282856110c1565b600060209050601f8311600181146111b857600084156111a6578287015190505b6111b08582611132565b865550611218565b601f1984166111c686610fa2565b60005b828110156111ee578489015182556001820191506020850194506020810190506111c9565b8683101561120b5784890151611207601f891682611114565b8355505b6001600288020188555050505b505050505050565b600073ffffffffffffffffffffffffffffffffffffffff82169050919050565b600061124b82611220565b9050919050565b61125b81611240565b82525050565b60006040820190506112766000830185611252565b6112836020830184610efb565b9392505050565b7f4e487b7100000000000000000000000000000000000000000000000000000000600052601160045260246000fd5b60006112c482610a53565b91507fffffffffffffffffffffffffffffffffffffffffffffffffffffffffffffffff82036112f6576112f561128a565b5b60018201905091905056fea264697066735822122078dbbb64d390a5e3869d943d91079a79f8026bd974ea64391411a971cee8543864736f6c63430008180033","opcodes":"PUSH1 0x80 PUSH1 0x40 MSTORE CALLVALUE DUP1 ISZERO PUSH2 0x10 JUMPI PUSH1 0x0 DUP1 REVERT JUMPDEST POP PUSH2 0x1337 DUP1 PUSH2 0x20 PUSH1 0x0 CODECOPY PUSH1 0x0 RETURN INVALID PUSH1 0x80 PUSH1 0x40 MSTORE CALLVALUE DUP1 ISZERO PUSH2 0x10 JUMPI PUSH1 0x0 DUP1 REVERT JUMPDEST POP PUSH1 0x4 CALLDATASIZE LT PUSH2 0x4C JUMPI PUSH1 0x0 CALLDATALOAD PUSH1 0xE0 SHR DUP1 PUSH4 0x36E4CCD EQ PUSH2 0x51 JUMPI DUP1 PUSH4 0x5CB9F4A4 EQ PUSH2 0x6F JUMPI DUP1 PUSH4 0xF2395D05 EQ PUSH2 0x8B JUMPI DUP1 PUSH4 0xFB144612 EQ PUSH2 0xA9 JUMPI JUMPDEST PUSH1 0x0 DUP1 REVERT JUMPDEST PUSH2 0x59 PUSH2 0xC5 JUMP JUMPDEST PUSH1 0x40 MLOAD PUSH2 0x66 SWAP2 SWAP1 PUSH2 0xC2A JUMP JUMPDEST PUSH1 0x40 MLOAD DUP1 SWAP2 SUB SWAP1 RETURN JUMPDEST PUSH2 0x89 PUSH1 0x4 DUP1 CALLDATASIZE SUB DUP2 ADD SWAP1 PUSH2 0x84 SWAP2 SWAP1 PUSH2 0xCB8 JUMP JUMPDEST PUSH2 0x112 JUMP JUMPDEST STOP JUMPDEST PUSH2 0x93 PUSH2 0x298 JUMP JUMPDEST PUSH1 0x40 MLOAD PUSH2 0xA0 SWAP2 SWAP1 PUSH2 0xC2A JUMP JUMPDEST PUSH1 0x40 MLOAD DUP1 SWAP2 SUB SWAP1 RETURN JUMPDEST PUSH2 0xC3 PUSH1 0x4 DUP1 CALLDATASIZE SUB DUP2 ADD SWAP1 PUSH2 0xBE SWAP2 SWAP1 PUSH2 0xE2D JUMP JUMPDEST PUSH2 0x2E5 JUMP JUMPDEST STOP JUMPDEST PUSH1 0x60 PUSH2 0xDB PUSH8 0xBD2D7566CC3ED6D PUSH1 0xC0 SHL PUSH2 0x4D6 JUMP JUMPDEST PUSH2 0xEF PUSH8 0x571A688157FDD066 PUSH1 0xC0 SHL PUSH2 0x4D6 JUMP JUMPDEST PUSH2 0x103 PUSH8 0x2BD8E5AD2EC228DD PUSH1 0xC0 SHL PUSH2 0x4D6 JUMP JUMPDEST PUSH2 0x10D PUSH1 0x0 PUSH2 0x4D9 JUMP JUMPDEST SWAP1 POP SWAP1 JUMP JUMPDEST PUSH2 0x126 PUSH8 0x7B96A66EADDC55E PUSH1 0xC0 SHL PUSH2 0x4D6 JUMP JUMPDEST PUSH2 0x13A PUSH8 0x11F5C920BCDACCF9 PUSH1 0xC0 SHL PUSH2 0x4D6 JUMP JUMPDEST PUSH2 0x14E PUSH8 0x6ED4D840403AFF5E PUSH1 0xC0 SHL PUSH2 0x4D6 JUMP JUMPDEST CALLER PUSH20 0xFFFFFFFFFFFFFFFFFFFFFFFFFFFFFFFFFFFFFFFF AND PUSH1 0x1 PUSH1 0x0 DUP5 DUP2 MSTORE PUSH1 0x20 ADD SWAP1 DUP2 MSTORE PUSH1 0x20 ADD PUSH1 0x0 KECCAK256 PUSH1 0x0 SWAP1 SLOAD SWAP1 PUSH2 0x100 EXP SWAP1 DIV PUSH20 0xFFFFFFFFFFFFFFFFFFFFFFFFFFFFFFFFFFFFFFFF AND PUSH20 0xFFFFFFFFFFFFFFFFFFFFFFFFFFFFFFFFFFFFFFFF AND SUB PUSH2 0x21E JUMPI PUSH2 0x1C8 PUSH8 0x11CAFC40BEC775B7 PUSH1 0xC0 SHL PUSH2 0x4D6 JUMP JUMPDEST PUSH2 0x1DC PUSH8 0x94CF53B1F1CE97B6 PUSH1 0xC0 SHL PUSH2 0x4D6 JUMP JUMPDEST DUP1 PUSH1 0x0 DUP4 DUP2 SLOAD DUP2 LT PUSH2 0x1F1 JUMPI PUSH2 0x1F0 PUSH2 0xECC JUMP JUMPDEST JUMPDEST SWAP1 PUSH1 0x0 MSTORE PUSH1 0x20 PUSH1 0x0 KECCAK256 SWAP1 PUSH1 0x5 MUL ADD PUSH1 0x4 ADD PUSH1 0x0 PUSH2 0x100 EXP DUP2 SLOAD DUP2 PUSH1 0xFF MUL NOT AND SWAP1 DUP4 ISZERO ISZERO MUL OR SWAP1 SSTORE POP PUSH2 0x233 JUMP JUMPDEST PUSH2 0x232 PUSH8 0x925FCF72DD926537 PUSH1 0xC0 SHL PUSH2 0x4D6 JUMP JUMPDEST JUMPDEST PUSH2 0x247 PUSH8 0x3A451FED2123090 PUSH1 0xC0 SHL PUSH2 0x4D6 JUMP JUMPDEST PUSH2 0x25B PUSH8 0x15FE25CA92DA0BEA PUSH1 0xC0 SHL PUSH2 0x4D6 JUMP JUMPDEST PUSH32 0x82582A9036D363AC1C8F8AFB35967821789BD99A24E5F545C34BD7DB7AE3F937 DUP3 DUP3 PUSH1 0x40 MLOAD PUSH2 0x28C SWAP3 SWAP2 SWAP1 PUSH2 0xF19 JUMP JUMPDEST PUSH1 0x40 MLOAD DUP1 SWAP2 SUB SWAP1 LOG1 POP POP JUMP JUMPDEST PUSH1 0x60 PUSH2 0x2AE PUSH8 0xAFB4BE4CD8D568BA PUSH1 0xC0 SHL PUSH2 0x4D6 JUMP JUMPDEST PUSH2 0x2C2 PUSH8 0x996C7102A08CC0B6 PUSH1 0xC0 SHL PUSH2 0x4D6 JUMP JUMPDEST PUSH2 0x2D6 PUSH8 0x4060C53B937F2439 PUSH1 0xC0 SHL PUSH2 0x4D6 JUMP JUMPDEST PUSH2 0x2E0 PUSH1 0x1 PUSH2 0x4D9 JUMP JUMPDEST SWAP1 POP SWAP1 JUMP JUMPDEST PUSH2 0x2F9 PUSH8 0x691D52762ECEB96D PUSH1 0xC0 SHL PUSH2 0x4D6 JUMP JUMPDEST PUSH2 0x30D PUSH8 0xF47C82049F278C1F PUSH1 0xC0 SHL PUSH2 0x4D6 JUMP JUMPDEST PUSH2 0x321 PUSH8 0xF50C06D46613DEF7 PUSH1 0xC0 SHL PUSH2 0x4D6 JUMP JUMPDEST PUSH1 0x0 DUP1 DUP1 SLOAD SWAP1 POP SWAP1 POP PUSH2 0x33E PUSH8 0xE831757264C27C9A PUSH1 0xC0 SHL PUSH2 0x4D6 JUMP JUMPDEST PUSH2 0x352 PUSH8 0x6EEEB88D4A145342 PUSH1 0xC0 SHL PUSH2 0x4D6 JUMP JUMPDEST PUSH1 0x0 PUSH1 0x40 MLOAD DUP1 PUSH1 0xA0 ADD PUSH1 0x40 MSTORE DUP1 DUP4 DUP2 MSTORE PUSH1 0x20 ADD DUP8 DUP2 MSTORE PUSH1 0x20 ADD DUP7 DUP2 MSTORE PUSH1 0x20 ADD DUP6 DUP2 MSTORE PUSH1 0x20 ADD DUP5 ISZERO ISZERO DUP2 MSTORE POP SWAP1 DUP1 PUSH1 0x1 DUP2 SLOAD ADD DUP1 DUP3 SSTORE DUP1 SWAP2 POP POP PUSH1 0x1 SWAP1 SUB SWAP1 PUSH1 0x0 MSTORE PUSH1 0x20 PUSH1 0x0 KECCAK256 SWAP1 PUSH1 0x5 MUL ADD PUSH1 0x0 SWAP1 SWAP2 SWAP1 SWAP2 SWAP1 SWAP2 POP PUSH1 0x0 DUP3 ADD MLOAD DUP2 PUSH1 0x0 ADD SSTORE PUSH1 0x20 DUP3 ADD MLOAD DUP2 PUSH1 0x1 ADD SWAP1 DUP2 PUSH2 0x3C5 SWAP2 SWAP1 PUSH2 0x114E JUMP JUMPDEST POP PUSH1 0x40 DUP3 ADD MLOAD DUP2 PUSH1 0x2 ADD SSTORE PUSH1 0x60 DUP3 ADD MLOAD DUP2 PUSH1 0x3 ADD SWAP1 DUP2 PUSH2 0x3E5 SWAP2 SWAP1 PUSH2 0x114E JUMP JUMPDEST POP PUSH1 0x80 DUP3 ADD MLOAD DUP2 PUSH1 0x4 ADD PUSH1 0x0 PUSH2 0x100 EXP DUP2 SLOAD DUP2 PUSH1 0xFF MUL NOT AND SWAP1 DUP4 ISZERO ISZERO MUL OR SWAP1 SSTORE POP POP POP PUSH2 0x41C PUSH8 0xA3711C0FE4F95131 PUSH1 0xC0 SHL PUSH2 0x4D6 JUMP JUMPDEST CALLER PUSH1 0x1 PUSH1 0x0 DUP4 DUP2 MSTORE PUSH1 0x20 ADD SWAP1 DUP2 MSTORE PUSH1 0x20 ADD PUSH1 0x0 KECCAK256 PUSH1 0x0 PUSH2 0x100 EXP DUP2 SLOAD DUP2 PUSH20 0xFFFFFFFFFFFFFFFFFFFFFFFFFFFFFFFFFFFFFFFF MUL NOT AND SWAP1 DUP4 PUSH20 0xFFFFFFFFFFFFFFFFFFFFFFFFFFFFFFFFFFFFFFFF AND MUL OR SWAP1 SSTORE POP PUSH2 0x482 PUSH8 0x1A61D092DE30E36C PUSH1 0xC0 SHL PUSH2 0x4D6 JUMP JUMPDEST PUSH2 0x496 PUSH8 0xB50F6E154C659CE3 PUSH1 0xC0 SHL PUSH2 0x4D6 JUMP JUMPDEST PUSH32 0x10545577C692A22F651E69221C47AD4418E40434B36F4E2411BC54007AA8CBB9 CALLER DUP3 PUSH1 0x40 MLOAD PUSH2 0x4C7 SWAP3 SWAP2 SWAP1 PUSH2 0x1261 JUMP JUMPDEST PUSH1 0x40 MLOAD DUP1 SWAP2 SUB SWAP1 LOG1 POP POP POP POP POP JUMP JUMPDEST POP JUMP JUMPDEST PUSH1 0x60 PUSH2 0x4EF PUSH8 0x22CC52A5B4A984A5 PUSH1 0xC0 SHL PUSH2 0x4D6 JUMP JUMPDEST PUSH2 0x503 PUSH8 0x275B14BC34511680 PUSH1 0xC0 SHL PUSH2 0x4D6 JUMP JUMPDEST PUSH2 0x517 PUSH8 0x2DF4FE096D962BFA PUSH1 0xC0 SHL PUSH2 0x4D6 JUMP JUMPDEST PUSH1 0x0 DUP1 DUP1 SLOAD SWAP1 POP PUSH8 0xFFFFFFFFFFFFFFFF DUP2 GT ISZERO PUSH2 0x537 JUMPI PUSH2 0x536 PUSH2 0xD02 JUMP JUMPDEST JUMPDEST PUSH1 0x40 MLOAD SWAP1 DUP1 DUP3 MSTORE DUP1 PUSH1 0x20 MUL PUSH1 0x20 ADD DUP3 ADD PUSH1 0x40 MSTORE DUP1 ISZERO PUSH2 0x570 JUMPI DUP2 PUSH1 0x20 ADD JUMPDEST PUSH2 0x55D PUSH2 0x9F6 JUMP JUMPDEST DUP2 MSTORE PUSH1 0x20 ADD SWAP1 PUSH1 0x1 SWAP1 SUB SWAP1 DUP2 PUSH2 0x555 JUMPI SWAP1 POP JUMPDEST POP SWAP1 POP PUSH2 0x587 PUSH8 0xF3C30C1C9D5C7D82 PUSH1 0xC0 SHL PUSH2 0x4D6 JUMP JUMPDEST PUSH2 0x59B PUSH8 0xC8DFFF3AC8592267 PUSH1 0xC0 SHL PUSH2 0x4D6 JUMP JUMPDEST PUSH1 0x0 PUSH2 0x5B1 PUSH8 0x60A646D7418BAC33 PUSH1 0xC0 SHL PUSH2 0x4D6 JUMP JUMPDEST PUSH2 0x5C5 PUSH8 0x959AB1F5A2B8AF06 PUSH1 0xC0 SHL PUSH2 0x4D6 JUMP JUMPDEST PUSH1 0x0 JUMPDEST PUSH1 0x0 DUP1 SLOAD SWAP1 POP DUP2 LT ISZERO PUSH2 0x8B4 JUMPI PUSH2 0x5E9 PUSH8 0x7CA51174C4CD8BE7 PUSH1 0xC0 SHL PUSH2 0x4D6 JUMP JUMPDEST PUSH2 0x5FD PUSH8 0x4E288DEACC62BF39 PUSH1 0xC0 SHL PUSH2 0x4D6 JUMP JUMPDEST CALLER PUSH20 0xFFFFFFFFFFFFFFFFFFFFFFFFFFFFFFFFFFFFFFFF AND PUSH1 0x1 PUSH1 0x0 DUP4 DUP2 MSTORE PUSH1 0x20 ADD SWAP1 DUP2 MSTORE PUSH1 0x20 ADD PUSH1 0x0 KECCAK256 PUSH1 0x0 SWAP1 SLOAD SWAP1 PUSH2 0x100 EXP SWAP1 DIV PUSH20 0xFFFFFFFFFFFFFFFFFFFFFFFFFFFFFFFFFFFFFFFF AND PUSH20 0xFFFFFFFFFFFFFFFFFFFFFFFFFFFFFFFFFFFFFFFF AND EQ DUP1 ISZERO PUSH2 0x6A0 JUMPI POP DUP5 ISZERO ISZERO PUSH1 0x0 DUP3 DUP2 SLOAD DUP2 LT PUSH2 0x67D JUMPI PUSH2 0x67C PUSH2 0xECC JUMP JUMPDEST JUMPDEST SWAP1 PUSH1 0x0 MSTORE PUSH1 0x20 PUSH1 0x0 KECCAK256 SWAP1 PUSH1 0x5 MUL ADD PUSH1 0x4 ADD PUSH1 0x0 SWAP1 SLOAD SWAP1 PUSH2 0x100 EXP SWAP1 DIV PUSH1 0xFF AND ISZERO ISZERO EQ JUMPDEST ISZERO PUSH2 0x892 JUMPI PUSH2 0x6B9 PUSH8 0xC52B346C1A876F6A PUSH1 0xC0 SHL PUSH2 0x4D6 JUMP JUMPDEST PUSH2 0x6CD PUSH8 0x42DA75CC73418DD8 PUSH1 0xC0 SHL PUSH2 0x4D6 JUMP JUMPDEST PUSH1 0x0 DUP2 DUP2 SLOAD DUP2 LT PUSH2 0x6E1 JUMPI PUSH2 0x6E0 PUSH2 0xECC JUMP JUMPDEST JUMPDEST SWAP1 PUSH1 0x0 MSTORE PUSH1 0x20 PUSH1 0x0 KECCAK256 SWAP1 PUSH1 0x5 MUL ADD PUSH1 0x40 MLOAD DUP1 PUSH1 0xA0 ADD PUSH1 0x40 MSTORE SWAP1 DUP2 PUSH1 0x0 DUP3 ADD SLOAD DUP2 MSTORE PUSH1 0x20 ADD PUSH1 0x1 DUP3 ADD DUP1 SLOAD PUSH2 0x714 SWAP1 PUSH2 0xF71 JUMP JUMPDEST DUP1 PUSH1 0x1F ADD PUSH1 0x20 DUP1 SWAP2 DIV MUL PUSH1 0x20 ADD PUSH1 0x40 MLOAD SWAP1 DUP2 ADD PUSH1 0x40 MSTORE DUP1 SWAP3 SWAP2 SWAP1 DUP2 DUP2 MSTORE PUSH1 0x20 ADD DUP3 DUP1 SLOAD PUSH2 0x740 SWAP1 PUSH2 0xF71 JUMP JUMPDEST DUP1 ISZERO PUSH2 0x78D JUMPI DUP1 PUSH1 0x1F LT PUSH2 0x762 JUMPI PUSH2 0x100 DUP1 DUP4 SLOAD DIV MUL DUP4 MSTORE SWAP2 PUSH1 0x20 ADD SWAP2 PUSH2 0x78D JUMP JUMPDEST DUP3 ADD SWAP2 SWAP1 PUSH1 0x0 MSTORE PUSH1 0x20 PUSH1 0x0 KECCAK256 SWAP1 JUMPDEST DUP2 SLOAD DUP2 MSTORE SWAP1 PUSH1 0x1 ADD SWAP1 PUSH1 0x20 ADD DUP1 DUP4 GT PUSH2 0x770 JUMPI DUP3 SWAP1 SUB PUSH1 0x1F AND DUP3 ADD SWAP2 JUMPDEST POP POP POP POP POP DUP2 MSTORE PUSH1 0x20 ADD PUSH1 0x2 DUP3 ADD SLOAD DUP2 MSTORE PUSH1 0x20 ADD PUSH1 0x3 DUP3 ADD DUP1 SLOAD PUSH2 0x7B0 SWAP1 PUSH2 0xF71 JUMP JUMPDEST DUP1 PUSH1 0x1F ADD PUSH1 0x20 DUP1 SWAP2 DIV MUL PUSH1 0x20 ADD PUSH1 0x40 MLOAD SWAP1 DUP2 ADD PUSH1 0x40 MSTORE DUP1 SWAP3 SWAP2 SWAP1 DUP2 DUP2 MSTORE PUSH1 0x20 ADD DUP3 DUP1 SLOAD PUSH2 0x7DC SWAP1 PUSH2 0xF71 JUMP JUMPDEST DUP1 ISZERO PUSH2 0x829 JUMPI DUP1 PUSH1 0x1F LT PUSH2 0x7FE JUMPI PUSH2 0x100 DUP1 DUP4 SLOAD DIV MUL DUP4 MSTORE SWAP2 PUSH1 0x20 ADD SWAP2 PUSH2 0x829 JUMP JUMPDEST DUP3 ADD SWAP2 SWAP1 PUSH1 0x0 MSTORE PUSH1 0x20 PUSH1 0x0 KECCAK256 SWAP1 JUMPDEST DUP2 SLOAD DUP2 MSTORE SWAP1 PUSH1 0x1 ADD SWAP1 PUSH1 0x20 ADD DUP1 DUP4 GT PUSH2 0x80C JUMPI DUP3 SWAP1 SUB PUSH1 0x1F AND DUP3 ADD SWAP2 JUMPDEST POP POP POP POP POP DUP2 MSTORE PUSH1 0x20 ADD PUSH1 0x4 DUP3 ADD PUSH1 0x0 SWAP1 SLOAD SWAP1 PUSH2 0x100 EXP SWAP1 DIV PUSH1 0xFF AND ISZERO ISZERO ISZERO ISZERO DUP2 MSTORE POP POP DUP4 DUP4 DUP2 MLOAD DUP2 LT PUSH2 0x860 JUMPI PUSH2 0x85F PUSH2 0xECC JUMP JUMPDEST JUMPDEST PUSH1 0x20 MUL PUSH1 0x20 ADD ADD DUP2 SWAP1 MSTORE POP PUSH2 0x87F PUSH8 0xF7279737BC81A671 PUSH1 0xC0 SHL PUSH2 0x4D6 JUMP JUMPDEST DUP2 DUP1 PUSH2 0x88A SWAP1 PUSH2 0x12B9 JUMP JUMPDEST SWAP3 POP POP PUSH2 0x8A7 JUMP JUMPDEST PUSH2 0x8A6 PUSH8 0xE1A0EE405E73EBB4 PUSH1 0xC0 SHL PUSH2 0x4D6 JUMP JUMPDEST JUMPDEST DUP1 DUP1 PUSH1 0x1 ADD SWAP2 POP POP PUSH2 0x5C8 JUMP JUMPDEST POP PUSH2 0x8C9 PUSH8 0xC1590472CCC8AA79 PUSH1 0xC0 SHL PUSH2 0x4D6 JUMP JUMPDEST PUSH2 0x8DD PUSH8 0xF8DADB187A669B9B PUSH1 0xC0 SHL PUSH2 0x4D6 JUMP JUMPDEST PUSH1 0x0 DUP2 PUSH8 0xFFFFFFFFFFFFFFFF DUP2 GT ISZERO PUSH2 0x8F9 JUMPI PUSH2 0x8F8 PUSH2 0xD02 JUMP JUMPDEST JUMPDEST PUSH1 0x40 MLOAD SWAP1 DUP1 DUP3 MSTORE DUP1 PUSH1 0x20 MUL PUSH1 0x20 ADD DUP3 ADD PUSH1 0x40 MSTORE DUP1 ISZERO PUSH2 0x932 JUMPI DUP2 PUSH1 0x20 ADD JUMPDEST PUSH2 0x91F PUSH2 0x9F6 JUMP JUMPDEST DUP2 MSTORE PUSH1 0x20 ADD SWAP1 PUSH1 0x1 SWAP1 SUB SWAP1 DUP2 PUSH2 0x917 JUMPI SWAP1 POP JUMPDEST POP SWAP1 POP PUSH2 0x949 PUSH8 0x151A4DD5C3B94E82 PUSH1 0xC0 SHL PUSH2 0x4D6 JUMP JUMPDEST PUSH2 0x95D PUSH8 0xB9CF29CBCC7D38F5 PUSH1 0xC0 SHL PUSH2 0x4D6 JUMP JUMPDEST PUSH1 0x0 JUMPDEST DUP3 DUP2 LT ISZERO PUSH2 0x9C2 JUMPI PUSH2 0x97C PUSH8 0xC9125D603BE8553C PUSH1 0xC0 SHL PUSH2 0x4D6 JUMP JUMPDEST DUP4 DUP2 DUP2 MLOAD DUP2 LT PUSH2 0x98F JUMPI PUSH2 0x98E PUSH2 0xECC JUMP JUMPDEST JUMPDEST PUSH1 0x20 MUL PUSH1 0x20 ADD ADD MLOAD DUP3 DUP3 DUP2 MLOAD DUP2 LT PUSH2 0x9AA JUMPI PUSH2 0x9A9 PUSH2 0xECC JUMP JUMPDEST JUMPDEST PUSH1 0x20 MUL PUSH1 0x20 ADD ADD DUP2 SWAP1 MSTORE POP DUP1 DUP1 PUSH1 0x1 ADD SWAP2 POP POP PUSH2 0x960 JUMP JUMPDEST POP PUSH2 0x9D7 PUSH8 0x22639A1E77A5B634 PUSH1 0xC0 SHL PUSH2 0x4D6 JUMP JUMPDEST PUSH2 0x9EB PUSH8 0x3A2DA49C176AE1AC PUSH1 0xC0 SHL PUSH2 0x4D6 JUMP JUMPDEST DUP1 SWAP4 POP POP POP POP SWAP2 SWAP1 POP JUMP JUMPDEST PUSH1 0x40 MLOAD DUP1 PUSH1 0xA0 ADD PUSH1 0x40 MSTORE DUP1 PUSH1 0x0 DUP2 MSTORE PUSH1 0x20 ADD PUSH1 0x60 DUP2 MSTORE PUSH1 0x20 ADD PUSH1 0x0 DUP2 MSTORE PUSH1 0x20 ADD PUSH1 0x60 DUP2 MSTORE PUSH1 0x20 ADD PUSH1 0x0 ISZERO ISZERO DUP2 MSTORE POP SWAP1 JUMP JUMPDEST PUSH1 0x0 DUP2 MLOAD SWAP1 POP SWAP2 SWAP1 POP JUMP JUMPDEST PUSH1 0x0 DUP3 DUP3 MSTORE PUSH1 0x20 DUP3 ADD SWAP1 POP SWAP3 SWAP2 POP POP JUMP JUMPDEST PUSH1 0x0 DUP2 SWAP1 POP PUSH1 0x20 DUP3 ADD SWAP1 POP SWAP2 SWAP1 POP JUMP JUMPDEST PUSH1 0x0 DUP2 SWAP1 POP SWAP2 SWAP1 POP JUMP JUMPDEST PUSH2 0xA66 DUP2 PUSH2 0xA53 JUMP JUMPDEST DUP3 MSTORE POP POP JUMP JUMPDEST PUSH1 0x0 DUP2 MLOAD SWAP1 POP SWAP2 SWAP1 POP JUMP JUMPDEST PUSH1 0x0 DUP3 DUP3 MSTORE PUSH1 0x20 DUP3 ADD SWAP1 POP SWAP3 SWAP2 POP POP JUMP JUMPDEST PUSH1 0x0 JUMPDEST DUP4 DUP2 LT ISZERO PUSH2 0xAA6 JUMPI DUP1 DUP3 ADD MLOAD DUP2 DUP5 ADD MSTORE PUSH1 0x20 DUP2 ADD SWAP1 POP PUSH2 0xA8B JUMP JUMPDEST PUSH1 0x0 DUP5 DUP5 ADD MSTORE POP POP POP POP JUMP JUMPDEST PUSH1 0x0 PUSH1 0x1F NOT PUSH1 0x1F DUP4 ADD AND SWAP1 POP SWAP2 SWAP1 POP JUMP JUMPDEST PUSH1 0x0 PUSH2 0xACE DUP3 PUSH2 0xA6C JUMP JUMPDEST PUSH2 0xAD8 DUP2 DUP6 PUSH2 0xA77 JUMP JUMPDEST SWAP4 POP PUSH2 0xAE8 DUP2 DUP6 PUSH1 0x20 DUP7 ADD PUSH2 0xA88 JUMP JUMPDEST PUSH2 0xAF1 DUP2 PUSH2 0xAB2 JUMP JUMPDEST DUP5 ADD SWAP2 POP POP SWAP3 SWAP2 POP POP JUMP JUMPDEST PUSH1 0x0 DUP2 ISZERO ISZERO SWAP1 POP SWAP2 SWAP1 POP JUMP JUMPDEST PUSH2 0xB11 DUP2 PUSH2 0xAFC JUMP JUMPDEST DUP3 MSTORE POP POP JUMP JUMPDEST PUSH1 0x0 PUSH1 0xA0 DUP4 ADD PUSH1 0x0 DUP4 ADD MLOAD PUSH2 0xB2F PUSH1 0x0 DUP7 ADD DUP3 PUSH2 0xA5D JUMP JUMPDEST POP PUSH1 0x20 DUP4 ADD MLOAD DUP5 DUP3 SUB PUSH1 0x20 DUP7 ADD MSTORE PUSH2 0xB47 DUP3 DUP3 PUSH2 0xAC3 JUMP JUMPDEST SWAP2 POP POP PUSH1 0x40 DUP4 ADD MLOAD PUSH2 0xB5C PUSH1 0x40 DUP7 ADD DUP3 PUSH2 0xA5D JUMP JUMPDEST POP PUSH1 0x60 DUP4 ADD MLOAD DUP5 DUP3 SUB PUSH1 0x60 DUP7 ADD MSTORE PUSH2 0xB74 DUP3 DUP3 PUSH2 0xAC3 JUMP JUMPDEST SWAP2 POP POP PUSH1 0x80 DUP4 ADD MLOAD PUSH2 0xB89 PUSH1 0x80 DUP7 ADD DUP3 PUSH2 0xB08 JUMP JUMPDEST POP DUP1 SWAP2 POP POP SWAP3 SWAP2 POP POP JUMP JUMPDEST PUSH1 0x0 PUSH2 0xBA0 DUP4 DUP4 PUSH2 0xB17 JUMP JUMPDEST SWAP1 POP SWAP3 SWAP2 POP POP JUMP JUMPDEST PUSH1 0x0 PUSH1 0x20 DUP3 ADD SWAP1 POP SWAP2 SWAP1 POP JUMP JUMPDEST PUSH1 0x0 PUSH2 0xBC0 DUP3 PUSH2 0xA27 JUMP JUMPDEST PUSH2 0xBCA DUP2 DUP6 PUSH2 0xA32 JUMP JUMPDEST SWAP4 POP DUP4 PUSH1 0x20 DUP3 MUL DUP6 ADD PUSH2 0xBDC DUP6 PUSH2 0xA43 JUMP JUMPDEST DUP1 PUSH1 0x0 JUMPDEST DUP6 DUP2 LT ISZERO PUSH2 0xC18 JUMPI DUP5 DUP5 SUB DUP10 MSTORE DUP2 MLOAD PUSH2 0xBF9 DUP6 DUP3 PUSH2 0xB94 JUMP JUMPDEST SWAP5 POP PUSH2 0xC04 DUP4 PUSH2 0xBA8 JUMP JUMPDEST SWAP3 POP PUSH1 0x20 DUP11 ADD SWAP10 POP POP PUSH1 0x1 DUP2 ADD SWAP1 POP PUSH2 0xBE0 JUMP JUMPDEST POP DUP3 SWAP8 POP DUP8 SWAP6 POP POP POP POP POP POP SWAP3 SWAP2 POP POP JUMP JUMPDEST PUSH1 0x0 PUSH1 0x20 DUP3 ADD SWAP1 POP DUP2 DUP2 SUB PUSH1 0x0 DUP4 ADD MSTORE PUSH2 0xC44 DUP2 DUP5 PUSH2 0xBB5 JUMP JUMPDEST SWAP1 POP SWAP3 SWAP2 POP POP JUMP JUMPDEST PUSH1 0x0 PUSH1 0x40 MLOAD SWAP1 POP SWAP1 JUMP JUMPDEST PUSH1 0x0 DUP1 REVERT JUMPDEST PUSH1 0x0 DUP1 REVERT JUMPDEST PUSH2 0xC69 DUP2 PUSH2 0xA53 JUMP JUMPDEST DUP2 EQ PUSH2 0xC74 JUMPI PUSH1 0x0 DUP1 REVERT JUMPDEST POP JUMP JUMPDEST PUSH1 0x0 DUP2 CALLDATALOAD SWAP1 POP PUSH2 0xC86 DUP2 PUSH2 0xC60 JUMP JUMPDEST SWAP3 SWAP2 POP POP JUMP JUMPDEST PUSH2 0xC95 DUP2 PUSH2 0xAFC JUMP JUMPDEST DUP2 EQ PUSH2 0xCA0 JUMPI PUSH1 0x0 DUP1 REVERT JUMPDEST POP JUMP JUMPDEST PUSH1 0x0 DUP2 CALLDATALOAD SWAP1 POP PUSH2 0xCB2 DUP2 PUSH2 0xC8C JUMP JUMPDEST SWAP3 SWAP2 POP POP JUMP JUMPDEST PUSH1 0x0 DUP1 PUSH1 0x40 DUP4 DUP6 SUB SLT ISZERO PUSH2 0xCCF JUMPI PUSH2 0xCCE PUSH2 0xC56 JUMP JUMPDEST JUMPDEST PUSH1 0x0 PUSH2 0xCDD DUP6 DUP3 DUP7 ADD PUSH2 0xC77 JUMP JUMPDEST SWAP3 POP POP PUSH1 0x20 PUSH2 0xCEE DUP6 DUP3 DUP7 ADD PUSH2 0xCA3 JUMP JUMPDEST SWAP2 POP POP SWAP3 POP SWAP3 SWAP1 POP JUMP JUMPDEST PUSH1 0x0 DUP1 REVERT JUMPDEST PUSH1 0x0 DUP1 REVERT JUMPDEST PUSH32 0x4E487B7100000000000000000000000000000000000000000000000000000000 PUSH1 0x0 MSTORE PUSH1 0x41 PUSH1 0x4 MSTORE PUSH1 0x24 PUSH1 0x0 REVERT JUMPDEST PUSH2 0xD3A DUP3 PUSH2 0xAB2 JUMP JUMPDEST DUP2 ADD DUP2 DUP2 LT PUSH8 0xFFFFFFFFFFFFFFFF DUP3 GT OR ISZERO PUSH2 0xD59 JUMPI PUSH2 0xD58 PUSH2 0xD02 JUMP JUMPDEST JUMPDEST DUP1 PUSH1 0x40 MSTORE POP POP POP JUMP JUMPDEST PUSH1 0x0 PUSH2 0xD6C PUSH2 0xC4C JUMP JUMPDEST SWAP1 POP PUSH2 0xD78 DUP3 DUP3 PUSH2 0xD31 JUMP JUMPDEST SWAP2 SWAP1 POP JUMP JUMPDEST PUSH1 0x0 PUSH8 0xFFFFFFFFFFFFFFFF DUP3 GT ISZERO PUSH2 0xD98 JUMPI PUSH2 0xD97 PUSH2 0xD02 JUMP JUMPDEST JUMPDEST PUSH2 0xDA1 DUP3 PUSH2 0xAB2 JUMP JUMPDEST SWAP1 POP PUSH1 0x20 DUP2 ADD SWAP1 POP SWAP2 SWAP1 POP JUMP JUMPDEST DUP3 DUP2 DUP4 CALLDATACOPY PUSH1 0x0 DUP4 DUP4 ADD MSTORE POP POP POP JUMP JUMPDEST PUSH1 0x0 PUSH2 0xDD0 PUSH2 0xDCB DUP5 PUSH2 0xD7D JUMP JUMPDEST PUSH2 0xD62 JUMP JUMPDEST SWAP1 POP DUP3 DUP2 MSTORE PUSH1 0x20 DUP2 ADD DUP5 DUP5 DUP5 ADD GT ISZERO PUSH2 0xDEC JUMPI PUSH2 0xDEB PUSH2 0xCFD JUMP JUMPDEST JUMPDEST PUSH2 0xDF7 DUP5 DUP3 DUP6 PUSH2 0xDAE JUMP JUMPDEST POP SWAP4 SWAP3 POP POP POP JUMP JUMPDEST PUSH1 0x0 DUP3 PUSH1 0x1F DUP4 ADD SLT PUSH2 0xE14 JUMPI PUSH2 0xE13 PUSH2 0xCF8 JUMP JUMPDEST JUMPDEST DUP2 CALLDATALOAD PUSH2 0xE24 DUP5 DUP3 PUSH1 0x20 DUP7 ADD PUSH2 0xDBD JUMP JUMPDEST SWAP2 POP POP SWAP3 SWAP2 POP POP JUMP JUMPDEST PUSH1 0x0 DUP1 PUSH1 0x0 DUP1 PUSH1 0x80 DUP6 DUP8 SUB SLT ISZERO PUSH2 0xE47 JUMPI PUSH2 0xE46 PUSH2 0xC56 JUMP JUMPDEST JUMPDEST PUSH1 0x0 DUP6 ADD CALLDATALOAD PUSH8 0xFFFFFFFFFFFFFFFF DUP2 GT ISZERO PUSH2 0xE65 JUMPI PUSH2 0xE64 PUSH2 0xC5B JUMP JUMPDEST JUMPDEST PUSH2 0xE71 DUP8 DUP3 DUP9 ADD PUSH2 0xDFF JUMP JUMPDEST SWAP5 POP POP PUSH1 0x20 PUSH2 0xE82 DUP8 DUP3 DUP9 ADD PUSH2 0xC77 JUMP JUMPDEST SWAP4 POP POP PUSH1 0x40 DUP6 ADD CALLDATALOAD PUSH8 0xFFFFFFFFFFFFFFFF DUP2 GT ISZERO PUSH2 0xEA3 JUMPI PUSH2 0xEA2 PUSH2 0xC5B JUMP JUMPDEST JUMPDEST PUSH2 0xEAF DUP8 DUP3 DUP9 ADD PUSH2 0xDFF JUMP JUMPDEST SWAP3 POP POP PUSH1 0x60 PUSH2 0xEC0 DUP8 DUP3 DUP9 ADD PUSH2 0xCA3 JUMP JUMPDEST SWAP2 POP POP SWAP3 SWAP6 SWAP2 SWAP5 POP SWAP3 POP JUMP JUMPDEST PUSH32 0x4E487B7100000000000000000000000000000000000000000000000000000000 PUSH1 0x0 MSTORE PUSH1 0x32 PUSH1 0x4 MSTORE PUSH1 0x24 PUSH1 0x0 REVERT JUMPDEST PUSH2 0xF04 DUP2 PUSH2 0xA53 JUMP JUMPDEST DUP3 MSTORE POP POP JUMP JUMPDEST PUSH2 0xF13 DUP2 PUSH2 0xAFC JUMP JUMPDEST DUP3 MSTORE POP POP JUMP JUMPDEST PUSH1 0x0 PUSH1 0x40 DUP3 ADD SWAP1 POP PUSH2 0xF2E PUSH1 0x0 DUP4 ADD DUP6 PUSH2 0xEFB JUMP JUMPDEST PUSH2 0xF3B PUSH1 0x20 DUP4 ADD DUP5 PUSH2 0xF0A JUMP JUMPDEST SWAP4 SWAP3 POP POP POP JUMP JUMPDEST PUSH32 0x4E487B7100000000000000000000000000000000000000000000000000000000 PUSH1 0x0 MSTORE PUSH1 0x22 PUSH1 0x4 MSTORE PUSH1 0x24 PUSH1 0x0 REVERT JUMPDEST PUSH1 0x0 PUSH1 0x2 DUP3 DIV SWAP1 POP PUSH1 0x1 DUP3 AND DUP1 PUSH2 0xF89 JUMPI PUSH1 0x7F DUP3 AND SWAP2 POP JUMPDEST PUSH1 0x20 DUP3 LT DUP2 SUB PUSH2 0xF9C JUMPI PUSH2 0xF9B PUSH2 0xF42 JUMP JUMPDEST JUMPDEST POP SWAP2 SWAP1 POP JUMP JUMPDEST PUSH1 0x0 DUP2 SWAP1 POP DUP2 PUSH1 0x0 MSTORE PUSH1 0x20 PUSH1 0x0 KECCAK256 SWAP1 POP SWAP2 SWAP1 POP JUMP JUMPDEST PUSH1 0x0 PUSH1 0x20 PUSH1 0x1F DUP4 ADD DIV SWAP1 POP SWAP2 SWAP1 POP JUMP JUMPDEST PUSH1 0x0 DUP3 DUP3 SHL SWAP1 POP SWAP3 SWAP2 POP POP JUMP JUMPDEST PUSH1 0x0 PUSH1 0x8 DUP4 MUL PUSH2 0x1004 PUSH32 0xFFFFFFFFFFFFFFFFFFFFFFFFFFFFFFFFFFFFFFFFFFFFFFFFFFFFFFFFFFFFFFFF DUP3 PUSH2 0xFC7 JUMP JUMPDEST PUSH2 0x100E DUP7 DUP4 PUSH2 0xFC7 JUMP JUMPDEST SWAP6 POP DUP1 NOT DUP5 AND SWAP4 POP DUP1 DUP7 AND DUP5 OR SWAP3 POP POP POP SWAP4 SWAP3 POP POP POP JUMP JUMPDEST PUSH1 0x0 DUP2 SWAP1 POP SWAP2 SWAP1 POP JUMP JUMPDEST PUSH1 0x0 PUSH2 0x104B PUSH2 0x1046 PUSH2 0x1041 DUP5 PUSH2 0xA53 JUMP JUMPDEST PUSH2 0x1026 JUMP JUMPDEST PUSH2 0xA53 JUMP JUMPDEST SWAP1 POP SWAP2 SWAP1 POP JUMP JUMPDEST PUSH1 0x0 DUP2 SWAP1 POP SWAP2 SWAP1 POP JUMP JUMPDEST PUSH2 0x1065 DUP4 PUSH2 0x1030 JUMP JUMPDEST PUSH2 0x1079 PUSH2 0x1071 DUP3 PUSH2 0x1052 JUMP JUMPDEST DUP5 DUP5 SLOAD PUSH2 0xFD4 JUMP JUMPDEST DUP3 SSTORE POP POP POP POP JUMP JUMPDEST PUSH1 0x0 SWAP1 JUMP JUMPDEST PUSH2 0x108E PUSH2 0x1081 JUMP JUMPDEST PUSH2 0x1099 DUP2 DUP5 DUP5 PUSH2 0x105C JUMP JUMPDEST POP POP POP JUMP JUMPDEST JUMPDEST DUP2 DUP2 LT ISZERO PUSH2 0x10BD JUMPI PUSH2 0x10B2 PUSH1 0x0 DUP3 PUSH2 0x1086 JUMP JUMPDEST PUSH1 0x1 DUP2 ADD SWAP1 POP PUSH2 0x109F JUMP JUMPDEST POP POP JUMP JUMPDEST PUSH1 0x1F DUP3 GT ISZERO PUSH2 0x1102 JUMPI PUSH2 0x10D3 DUP2 PUSH2 0xFA2 JUMP JUMPDEST PUSH2 0x10DC DUP5 PUSH2 0xFB7 JUMP JUMPDEST DUP2 ADD PUSH1 0x20 DUP6 LT ISZERO PUSH2 0x10EB JUMPI DUP2 SWAP1 POP JUMPDEST PUSH2 0x10FF PUSH2 0x10F7 DUP6 PUSH2 0xFB7 JUMP JUMPDEST DUP4 ADD DUP3 PUSH2 0x109E JUMP JUMPDEST POP POP JUMPDEST POP POP POP JUMP JUMPDEST PUSH1 0x0 DUP3 DUP3 SHR SWAP1 POP SWAP3 SWAP2 POP POP JUMP JUMPDEST PUSH1 0x0 PUSH2 0x1125 PUSH1 0x0 NOT DUP5 PUSH1 0x8 MUL PUSH2 0x1107 JUMP JUMPDEST NOT DUP1 DUP4 AND SWAP2 POP POP SWAP3 SWAP2 POP POP JUMP JUMPDEST PUSH1 0x0 PUSH2 0x113E DUP4 DUP4 PUSH2 0x1114 JUMP JUMPDEST SWAP2 POP DUP3 PUSH1 0x2 MUL DUP3 OR SWAP1 POP SWAP3 SWAP2 POP POP JUMP JUMPDEST PUSH2 0x1157 DUP3 PUSH2 0xA6C JUMP JUMPDEST PUSH8 0xFFFFFFFFFFFFFFFF DUP2 GT ISZERO PUSH2 0x1170 JUMPI PUSH2 0x116F PUSH2 0xD02 JUMP JUMPDEST JUMPDEST PUSH2 0x117A DUP3 SLOAD PUSH2 0xF71 JUMP JUMPDEST PUSH2 0x1185 DUP3 DUP3 DUP6 PUSH2 0x10C1 JUMP JUMPDEST PUSH1 0x0 PUSH1 0x20 SWAP1 POP PUSH1 0x1F DUP4 GT PUSH1 0x1 DUP2 EQ PUSH2 0x11B8 JUMPI PUSH1 0x0 DUP5 ISZERO PUSH2 0x11A6 JUMPI DUP3 DUP8 ADD MLOAD SWAP1 POP JUMPDEST PUSH2 0x11B0 DUP6 DUP3 PUSH2 0x1132 JUMP JUMPDEST DUP7 SSTORE POP PUSH2 0x1218 JUMP JUMPDEST PUSH1 0x1F NOT DUP5 AND PUSH2 0x11C6 DUP7 PUSH2 0xFA2 JUMP JUMPDEST PUSH1 0x0 JUMPDEST DUP3 DUP2 LT ISZERO PUSH2 0x11EE JUMPI DUP5 DUP10 ADD MLOAD DUP3 SSTORE PUSH1 0x1 DUP3 ADD SWAP2 POP PUSH1 0x20 DUP6 ADD SWAP5 POP PUSH1 0x20 DUP2 ADD SWAP1 POP PUSH2 0x11C9 JUMP JUMPDEST DUP7 DUP4 LT ISZERO PUSH2 0x120B JUMPI DUP5 DUP10 ADD MLOAD PUSH2 0x1207 PUSH1 0x1F DUP10 AND DUP3 PUSH2 0x1114 JUMP JUMPDEST DUP4 SSTORE POP JUMPDEST PUSH1 0x1 PUSH1 0x2 DUP9 MUL ADD DUP9 SSTORE POP POP POP JUMPDEST POP POP POP POP POP POP JUMP JUMPDEST PUSH1 0x0 PUSH20 0xFFFFFFFFFFFFFFFFFFFFFFFFFFFFFFFFFFFFFFFF DUP3 AND SWAP1 POP SWAP2 SWAP1 POP JUMP JUMPDEST PUSH1 0x0 PUSH2 0x124B DUP3 PUSH2 0x1220 JUMP JUMPDEST SWAP1 POP SWAP2 SWAP1 POP JUMP JUMPDEST PUSH2 0x125B DUP2 PUSH2 0x1240 JUMP JUMPDEST DUP3 MSTORE POP POP JUMP JUMPDEST PUSH1 0x0 PUSH1 0x40 DUP3 ADD SWAP1 POP PUSH2 0x1276 PUSH1 0x0 DUP4 ADD DUP6 PUSH2 0x1252 JUMP JUMPDEST PUSH2 0x1283 PUSH1 0x20 DUP4 ADD DUP5 PUSH2 0xEFB JUMP JUMPDEST SWAP4 SWAP3 POP POP POP JUMP JUMPDEST PUSH32 0x4E487B7100000000000000000000000000000000000000000000000000000000 PUSH1 0x0 MSTORE PUSH1 0x11 PUSH1 0x4 MSTORE PUSH1 0x24 PUSH1 0x0 REVERT JUMPDEST PUSH1 0x0 PUSH2 0x12C4 DUP3 PUSH2 0xA53 JUMP JUMPDEST SWAP2 POP PUSH32 0xFFFFFFFFFFFFFFFFFFFFFFFFFFFFFFFFFFFFFFFFFFFFFFFFFFFFFFFFFFFFFFFF DUP3 SUB PUSH2 0x12F6 JUMPI PUSH2 0x12F5 PUSH2 0x128A JUMP JUMPDEST JUMPDEST PUSH1 0x1 DUP3 ADD SWAP1 POP SWAP2 SWAP1 POP JUMP INVALID LOG2 PUSH5 0x6970667358 0x22 SLT KECCAK256 PUSH25 0xDBBB64D390A5E3869D943D91079A79F8026BD974EA64391411 0xA9 PUSH18 0xCEE8543864736F6C63430008180033000000 "},"gasEstimates":{"creation":{"codeDepositCost":"983800","executionCost":"1021","totalCost":"984821"},"external":{"addBook(string,uint256,string,bool)":"infinite","getCompletedBooks()":"infinite","getUncompletedBooks()":"infinite","setCompleted(uint256,bool)":"infinite"},"internal":{"c_85eba4d2(bytes8)":"11","c_false85eba4d2(bytes8)":"infinite","c_true85eba4d2(bytes8)":"infinite","getBookList(bool)":"infinite"}},"methodIdentifiers":{"addBook(string,uint256,string,bool)":"fb144612","getCompletedBooks()":"f2395d05","getUncompletedBooks()":"036e4ccd","setCompleted(uint256,bool)":"5cb9f4a4"}},"storageLayout":{"storage":[{"astId":80,"contract":"contracts/BookRecord.sol:BookRecord","label":"bookList","offset":0,"slot":"0","type":"t_array(t_struct(Book)76_storage)dyn_storage"},{"astId":84,"contract":"contracts/BookRecord.sol:BookRecord","label":"bookToReader","offset":0,"slot":"1","type":"t_mapping(t_uint256,t_address)"}],"types":{"t_address":{"encoding":"inplace","label":"address","numberOfBytes":"20"},"t_array(t_struct(Book)76_storage)dyn_storage":{"base":"t_struct(Book)76_storage","encoding":"dynamic_array","label":"struct BookRecord.Book[]","numberOfBytes":"32"},"t_bool":{"encoding":"inplace","label":"bool","numberOfBytes":"1"},"t_mapping(t_uint256,t_address)":{"encoding":"mapping","key":"t_uint256","label":"mapping(uint256 => address)","numberOfBytes":"32","value":"t_address"},"t_string_storage":{"encoding":"bytes","label":"string","numberOfBytes":"32"},"t_struct(Book)76_storage":{"encoding":"inplace","label":"struct BookRecord.Book","members":[{"astId":67,"contract":"contracts/BookRecord.sol:BookRecord","label":"id","offset":0,"slot":"0","type":"t_uint256"},{"astId":69,"contract":"contracts/BookRecord.sol:BookRecord","label":"title","offset":0,"slot":"1","type":"t_string_storage"},{"astId":71,"contract":"contracts/BookRecord.sol:BookRecord","label":"year","offset":0,"slot":"2","type":"t_uint256"},{"astId":73,"contract":"contracts/BookRecord.sol:BookRecord","label":"author","offset":0,"slot":"3","type":"t_string_storage"},{"astId":75,"contract":"contracts/BookRecord.sol:BookRecord","label":"completed","offset":0,"slot":"4","type":"t_bool"}],"numberOfBytes":"160"},"t_uint256":{"encoding":"inplace","label":"uint256","numberOfBytes":"32"}}},"userdoc":{"kind":"user","methods":{},"version":1}}}}