{
  "address": "0x5FbDB2315678afecb367f032d93F642f64180aa3",
  "abi": [
    {
      "anonymous": false,
      "inputs": [
        {
          "indexed": false,
          "internalType": "address",
          "name": "reader",
          "type": "address"
        },
        {
          "indexed": false,
          "internalType": "uint256",
          "name": "id",
          "type": "uint256"
        }
      ],
      "name": "AddBook",
      "type": "event"
    },
    {
      "anonymous": false,
      "inputs": [
        {
          "indexed": false,
          "internalType": "uint256",
          "name": "bookId",
          "type": "uint256"
        },
        {
          "indexed": false,
          "internalType": "bool",
          "name": "completed",
          "type": "bool"
        }
      ],
      "name": "SetCompleted",
      "type": "event"
    },
    {
      "inputs": [
        {
          "internalType": "string",
          "name": "title",
          "type": "string"
        },
        {
          "internalType": "uint256",
          "name": "year",
          "type": "uint256"
        },
        {
          "internalType": "string",
          "name": "author",
          "type": "string"
        },
        {
          "internalType": "bool",
          "name": "completed",
          "type": "bool"
        }
      ],
      "name": "addBook",
      "outputs": [],
      "stateMutability": "nonpayable",
      "type": "function"
    },
    {
      "inputs": [],
      "name": "getCompletedBooks",
      "outputs": [
        {
          "components": [
            {
              "internalType": "uint256",
              "name": "id",
              "type": "uint256"
            },
            {
              "internalType": "string",
              "name": "title",
              "type": "string"
            },
            {
              "internalType": "uint256",
              "name": "year",
              "type": "uint256"
            },
            {
              "internalType": "string",
              "name": "author",
              "type": "string"
            },
            {
              "internalType": "bool",
              "name": "completed",
              "type": "bool"
            }
          ],
          "internalType": "struct BookRecord.Book[]",
          "name": "",
          "type": "tuple[]"
        }
      ],
      "stateMutability": "view",
      "type": "function"
    },
    {
      "inputs": [],
      "name": "getUncompletedBooks",
      "outputs": [
        {
          "components": [
            {
              "internalType": "uint256",
              "name": "id",
              "type": "uint256"
            },
            {
              "internalType": "string",
              "name": "title",
              "type": "string"
            },
            {
              "internalType": "uint256",
              "name": "year",
              "type": "uint256"
            },
            {
              "internalType": "string",
              "name": "author",
              "type": "string"
            },
            {
              "internalType": "bool",
              "name": "completed",
              "type": "bool"
            }
          ],
          "internalType": "struct BookRecord.Book[]",
          "name": "",
          "type": "tuple[]"
        }
      ],
      "stateMutability": "view",
      "type": "function"
    },
    {
      "inputs": [
        {
          "internalType": "uint256",
          "name": "bookId",
          "type": "uint256"
        },
        {
          "internalType": "bool",
          "name": "completed",
          "type": "bool"
        }
      ],
      "name": "setCompleted",
      "outputs": [],
      "stateMutability": "nonpayable",
      "type": "function"
    }
  ],
  "transactionHash": "0x47d4fadd43614b5c05ed1b1f5b6eeec592c0c4378e094c09455af34f3181e13e",
  "args": [],
  "numDeployments": 1,
  "solcInputHash": "172b3c98b0670714f480a4202bc82e1d",
  "bytecode": "0x608060405234801561001057600080fd5b50610fe1806100206000396000f3fe608060405234801561001057600080fd5b506004361061004c5760003560e01c8063036e4ccd146100515780635cb9f4a41461006f578063f2395d051461008b578063fb144612146100a9575b600080fd5b6100596100c5565b60405161006691906108d4565b60405180910390f35b61008960048036038101906100849190610962565b6100d6565b005b6100936101b7565b6040516100a091906108d4565b60405180910390f35b6100c360048036038101906100be9190610ad7565b6101c8565b005b60606100d16000610319565b905090565b3373ffffffffffffffffffffffffffffffffffffffff166001600084815260200190815260200160002060009054906101000a900473ffffffffffffffffffffffffffffffffffffffff1673ffffffffffffffffffffffffffffffffffffffff160361017a57806000838154811061015157610150610b76565b5b906000526020600020906005020160040160006101000a81548160ff0219169083151502179055505b7f82582a9036d363ac1c8f8afb35967821789bd99a24e5f545c34bd7db7ae3f93782826040516101ab929190610bc3565b60405180910390a15050565b60606101c36001610319565b905090565b60008080549050905060006040518060a0016040528083815260200187815260200186815260200185815260200184151581525090806001815401808255809150506001900390600052602060002090600502016000909190919091506000820151816000015560208201518160010190816102449190610df8565b506040820151816002015560608201518160030190816102649190610df8565b5060808201518160040160006101000a81548160ff0219169083151502179055505050336001600083815260200190815260200160002060006101000a81548173ffffffffffffffffffffffffffffffffffffffff021916908373ffffffffffffffffffffffffffffffffffffffff1602179055507f10545577c692a22f651e69221c47ad4418e40434b36f4e2411bc54007aa8cbb9338260405161030a929190610f0b565b60405180910390a15050505050565b60606000808054905067ffffffffffffffff81111561033b5761033a6109ac565b5b60405190808252806020026020018201604052801561037457816020015b6103616106a0565b8152602001906001900390816103595790505b5090506000805b6000805490508110156105ea573373ffffffffffffffffffffffffffffffffffffffff166001600083815260200190815260200160002060009054906101000a900473ffffffffffffffffffffffffffffffffffffffff1673ffffffffffffffffffffffffffffffffffffffff1614801561042b57508415156000828154811061040857610407610b76565b5b906000526020600020906005020160040160009054906101000a900460ff161515145b156105dd576000818154811061044457610443610b76565b5b90600052602060002090600502016040518060a00160405290816000820154815260200160018201805461047790610c1b565b80601f01602080910402602001604051908101604052809291908181526020018280546104a390610c1b565b80156104f05780601f106104c5576101008083540402835291602001916104f0565b820191906000526020600020905b8154815290600101906020018083116104d357829003601f168201915b505050505081526020016002820154815260200160038201805461051390610c1b565b80601f016020809104026020016040519081016040528092919081815260200182805461053f90610c1b565b801561058c5780601f106105615761010080835404028352916020019161058c565b820191906000526020600020905b81548152906001019060200180831161056f57829003601f168201915b505050505081526020016004820160009054906101000a900460ff1615151515815250508383815181106105c3576105c2610b76565b5b602002602001018190525081806105d990610f63565b9250505b808060010191505061037b565b5060008167ffffffffffffffff811115610607576106066109ac565b5b60405190808252806020026020018201604052801561064057816020015b61062d6106a0565b8152602001906001900390816106255790505b50905060005b828110156106945783818151811061066157610660610b76565b5b602002602001015182828151811061067c5761067b610b76565b5b60200260200101819052508080600101915050610646565b50809350505050919050565b6040518060a00160405280600081526020016060815260200160008152602001606081526020016000151581525090565b600081519050919050565b600082825260208201905092915050565b6000819050602082019050919050565b6000819050919050565b610710816106fd565b82525050565b600081519050919050565b600082825260208201905092915050565b60005b83811015610750578082015181840152602081019050610735565b60008484015250505050565b6000601f19601f8301169050919050565b600061077882610716565b6107828185610721565b9350610792818560208601610732565b61079b8161075c565b840191505092915050565b60008115159050919050565b6107bb816107a6565b82525050565b600060a0830160008301516107d96000860182610707565b50602083015184820360208601526107f1828261076d565b91505060408301516108066040860182610707565b506060830151848203606086015261081e828261076d565b915050608083015161083360808601826107b2565b508091505092915050565b600061084a83836107c1565b905092915050565b6000602082019050919050565b600061086a826106d1565b61087481856106dc565b935083602082028501610886856106ed565b8060005b858110156108c257848403895281516108a3858261083e565b94506108ae83610852565b925060208a0199505060018101905061088a565b50829750879550505050505092915050565b600060208201905081810360008301526108ee818461085f565b905092915050565b6000604051905090565b600080fd5b600080fd5b610913816106fd565b811461091e57600080fd5b50565b6000813590506109308161090a565b92915050565b61093f816107a6565b811461094a57600080fd5b50565b60008135905061095c81610936565b92915050565b6000806040838503121561097957610978610900565b5b600061098785828601610921565b92505060206109988582860161094d565b9150509250929050565b600080fd5b600080fd5b7f4e487b7100000000000000000000000000000000000000000000000000000000600052604160045260246000fd5b6109e48261075c565b810181811067ffffffffffffffff82111715610a0357610a026109ac565b5b80604052505050565b6000610a166108f6565b9050610a2282826109db565b919050565b600067ffffffffffffffff821115610a4257610a416109ac565b5b610a4b8261075c565b9050602081019050919050565b82818337600083830152505050565b6000610a7a610a7584610a27565b610a0c565b905082815260208101848484011115610a9657610a956109a7565b5b610aa1848285610a58565b509392505050565b600082601f830112610abe57610abd6109a2565b5b8135610ace848260208601610a67565b91505092915050565b60008060008060808587031215610af157610af0610900565b5b600085013567ffffffffffffffff811115610b0f57610b0e610905565b5b610b1b87828801610aa9565b9450506020610b2c87828801610921565b935050604085013567ffffffffffffffff811115610b4d57610b4c610905565b5b610b5987828801610aa9565b9250506060610b6a8782880161094d565b91505092959194509250565b7f4e487b7100000000000000000000000000000000000000000000000000000000600052603260045260246000fd5b610bae816106fd565b82525050565b610bbd816107a6565b82525050565b6000604082019050610bd86000830185610ba5565b610be56020830184610bb4565b9392505050565b7f4e487b7100000000000000000000000000000000000000000000000000000000600052602260045260246000fd5b60006002820490506001821680610c3357607f821691505b602082108103610c4657610c45610bec565b5b50919050565b60008190508160005260206000209050919050565b60006020601f8301049050919050565b600082821b905092915050565b600060088302610cae7fffffffffffffffffffffffffffffffffffffffffffffffffffffffffffffffff82610c71565b610cb88683610c71565b95508019841693508086168417925050509392505050565b6000819050919050565b6000610cf5610cf0610ceb846106fd565b610cd0565b6106fd565b9050919050565b6000819050919050565b610d0f83610cda565b610d23610d1b82610cfc565b848454610c7e565b825550505050565b600090565b610d38610d2b565b610d43818484610d06565b505050565b5b81811015610d6757610d5c600082610d30565b600181019050610d49565b5050565b601f821115610dac57610d7d81610c4c565b610d8684610c61565b81016020851015610d95578190505b610da9610da185610c61565b830182610d48565b50505b505050565b600082821c905092915050565b6000610dcf60001984600802610db1565b1980831691505092915050565b6000610de88383610dbe565b9150826002028217905092915050565b610e0182610716565b67ffffffffffffffff811115610e1a57610e196109ac565b5b610e248254610c1b565b610e2f828285610d6b565b600060209050601f831160018114610e625760008415610e50578287015190505b610e5a8582610ddc565b865550610ec2565b601f198416610e7086610c4c565b60005b82811015610e9857848901518255600182019150602085019450602081019050610e73565b86831015610eb55784890151610eb1601f891682610dbe565b8355505b6001600288020188555050505b505050505050565b600073ffffffffffffffffffffffffffffffffffffffff82169050919050565b6000610ef582610eca565b9050919050565b610f0581610eea565b82525050565b6000604082019050610f206000830185610efc565b610f2d6020830184610ba5565b9392505050565b7f4e487b7100000000000000000000000000000000000000000000000000000000600052601160045260246000fd5b6000610f6e826106fd565b91507fffffffffffffffffffffffffffffffffffffffffffffffffffffffffffffffff8203610fa057610f9f610f34565b5b60018201905091905056fea2646970667358221220edf2c712fe8d6718396e684f8a00c133f3c500b1ed8cf7d426fed4876411f46f64736f6c63430008180033",
  "devdoc": {
    "kind": "dev",
    "methods": {},
    "version": 1
  },
  "userdoc": {
    "kind": "user",
    "methods": {},
    "version": 1
  },
  "storageLayout": {
    "storage": [
      {
        "astId": 28,
        "contract": "contracts/BookRecord.sol:BookRecord",
        "label": "bookList",
        "offset": 0,
        "slot": "0",
        "type": "t_array(t_struct(Book)24_storage)dyn_storage"
      },
      {
        "astId": 32,
        "contract": "contracts/BookRecord.sol:BookRecord",
        "label": "bookToReader",
        "offset": 0,
        "slot": "1",
        "type": "t_mapping(t_uint256,t_address)"
      }
    ],
    "types": {
      "t_address": {
        "encoding": "inplace",
        "label": "address",
        "numberOfBytes": "20"
      },
      "t_array(t_struct(Book)24_storage)dyn_storage": {
        "base": "t_struct(Book)24_storage",
        "encoding": "dynamic_array",
        "label": "struct BookRecord.Book[]",
        "numberOfBytes": "32"
      },
      "t_bool": {
        "encoding": "inplace",
        "label": "bool",
        "numberOfBytes": "1"
      },
      "t_mapping(t_uint256,t_address)": {
        "encoding": "mapping",
        "key": "t_uint256",
        "label": "mapping(uint256 => address)",
        "numberOfBytes": "32",
        "value": "t_address"
      },
      "t_string_storage": {
        "encoding": "bytes",
        "label": "string",
        "numberOfBytes": "32"
      },
      "t_struct(Book)24_storage": {
        "encoding": "inplace",
        "label": "struct BookRecord.Book",
        "members": [
          {
            "astId": 15,
            "contract": "contracts/BookRecord.sol:BookRecord",
            "label": "id",
            "offset": 0,
            "slot": "0",
            "type": "t_uint256"
          },
          {
            "astId": 17,
            "contract": "contracts/BookRecord.sol:BookRecord",
            "label": "title",
            "offset": 0,
            "slot": "1",
            "type": "t_string_storage"
          },
          {
            "astId": 19,
            "contract": "contracts/BookRecord.sol:BookRecord",
            "label": "year",
            "offset": 0,
            "slot": "2",
            "type": "t_uint256"
          },
          {
            "astId": 21,
            "contract": "contracts/BookRecord.sol:BookRecord",
            "label": "author",
            "offset": 0,
            "slot": "3",
            "type": "t_string_storage"
          },
          {
            "astId": 23,
            "contract": "contracts/BookRecord.sol:BookRecord",
            "label": "completed",
            "offset": 0,
            "slot": "4",
            "type": "t_bool"
          }
        ],
        "numberOfBytes": "160"
      },
      "t_uint256": {
        "encoding": "inplace",
        "label": "uint256",
        "numberOfBytes": "32"
      }
    }
  }
}